:020000040800F2
:100000006809002055020008354B00089D41000892
:10001000314B0008251D000845590008000000006C
:100020000000000000000000000000001152000865
:10003000291D000800000000394B0008B1530008DA
:100040006F0200086F0200086F0200086F020008CC
:100050006F0200086F0200086F0200086F020008BC
:100060006F0200086F0200086F0200086F020008AC
:100070006F0200086F0200086F0200086F0200089C
:100080006F0200086F0200086F0200080000000005
:100090000000000000000000000000006F020008E7
:1000A0006F0200086F0200086F0200086F0200086C
:1000B000895400086F020008995400086F02000874
:1000C0006F0200086F0200086F0200086F0200084C
:1000D0006F0200086F0200086F02000800000000B5
:1000E0006F0200086F0200086F02000800000000A5
:1000F0000000000000000000000000006F02000887
:10010000000000006F0200086F0200086F02000884
:1001100000000000000000000000000000000000DF
:100120006F0200086F0200086F0200086F020008EB
:100130006F02000800000000000000000000000046
:100140000000000000000000000000006F02000836
:100150006F0200086F0200086F0200086F020008BB
:100160006F0200086F02000800000000000000009D
:10017000000000000000000000000000000000007F
:10018000000000006F0200080000000000000000F6
:100190006F02000800F002F800F04CF80AA090E8A6
:1001A000000C82448344AAF10107DA4501D100F032
:1001B00041F8AFF2090EBAE80F0013F0010F18BFB3
:1001C000FB1A43F001031847DCA50000FCA5000062
:1001D000103A24BF78C878C1FAD8520724BF30C873
:1001E00030C144BF04680C60704700000023002445
:1001F00000250026103A28BF78C1FBD8520728BF37
:1002000030C148BF0B607047662907F0C484642979
:1002100000F01881002070471FB507F0B2FC00F015
:10022000A5FC04000020002106F058FEE0601FBD80
:1002300010B510BD00F09EFD1146FFF7EDFF06F072
:1002400025FD00F0BCFD03B4FFF7F2FF03BC00F096
:10025000FFFD00000948804709480047FEE7FEE728
:10026000FEE7FEE7FEE7FEE7FEE7FEE7FEE7FEE766
:1002700004480549054A064B7047000075540008BC
:100280009501000868030020680900206805002027
:100290006805002053EA020C00F069802DE9F04B5C
:1002A0004FF00006002B1FBFB3FA83F503FA05F4E5
:1002B00024FA05F65E4012BF1643B2FA82F502FA3E
:1002C00005F4C5F120051EBF22FA05FC44EA0C0422
:1002D000203556EA044C4FEA144418BF641C4FF012
:1002E00000084FF00009904271EB030C39D300294C
:1002F00019BFB1FA81F701FA07F6B0FA80F700FAF0
:1003000007F6C7F120071EBF20FA07FC46EA0C06D5
:100310002037B6FBF4FCA7EB0507103F07F01F0BD7
:10032000CBF120060CFA0BFB2CFA06F644BFB346C1
:100330000026202FA4BF5E464FF0000B5BEA060CA0
:1003400008BF4FF0010B19EB0B09ABFB027C48EB2C
:100350000608C01B06FB02CC0BFB03CC71EB0C01A7
:10036000C1E70B46024641464846BDE8F08B13B54F
:100370004FF000004FF00001AFF30080BDE81C40DB
:10038000704710B54C1084EA530404D54042C1F1C3
:10039000000138BF491E1B4204D55242C3F100037D
:1003A00038BF5B1EFFF776FF14F0804F04D0404249
:1003B000C1F1000138BF491E14F0004F04D0524271
:1003C000C3F1000338BF5B1E10BD00000FB41CB5A5
:1003D000074B06AA7B4469460090059800F0ADFBE8
:1003E0000020694600F0BCFB1CBC5DF814FB00005B
:1003F0008907000070B5044685690068C10601D50B
:10040000302600E02026C00707D070BDD4E90121C6
:1004100030469047206A401C20626D1EF6D570BDA4
:1004200070B5044685690078C00707D170BDD4E96E
:10043000012120209047206A401C20626D1EF6D5C5
:1004400070BD00002DE9F0410646002410687529B2
:10045000314616A510D0AFF30080002802DA4042E2
:1004600013A507E031688A0701D512A502E0490704
:1004700004D511A5012401E0AFF3008000210A2278
:1004800006F1240709E0B0FBF2FCB0FBF2F302FB3B
:100490001C00303078541846491C0028F3D12346FC
:1004A0002A463046BDE8F04100F0D9B8000000000F
:1004B0002D0000002B000000200000002DE9F05F5F
:1004C000894604464FF0000ADFF824B1FB44C0F827
:1004D00020A02046E168884700287DD0252806D046
:1004E000D4E901219047206A401C2062F1E70025F1
:1004F0005F462046E16888472028064607DB312E04
:1005000005D2B81910F8200C08B10543F1E7A80787
:1005100001D525F00405C4F81CA00027C4F818A0D4
:100520002A2E09D0304606F03BF938B304EB870891
:10053000303EC8F8186019E059F8041B204604EB57
:1005400087029161E1688847012F064618D1E0696A
:10055000002820DA25F020051DE0D8F8180000EB6F
:10056000800006EB40003038C8F818002046E168EB
:100570008847064606F014F90028EED1012F0AD06C
:100580002E2E08D12046E16888477F1C0646022FA0
:1005900045F02005C4DBA069002803DA404245F09D
:1005A0000105A061E80701D025F01005A6B1A6F16C
:1005B0004100192802D8203645F400654A463146E4
:1005C000204625604D46FFF71FFE60B1012807D089
:1005D000ED1D25F0070000E007E000F1080978E7CD
:1005E00005F1040975E730467AE7206ABDE8F09F17
:1005F0009DA100004FF0000200B5134694469646B8
:10060000203922BFA0E80C50A0E80C50B1F1200125
:10061000BFF4F7AF090728BFA0E80C5048BF0CC0D3
:100620005DF804EB890028BF40F8042B08BF704731
:1006300048BF20F8022B11F0804F18BF00F8012BA3
:10064000704770477047704710B500F093FA006824
:1006500010BD10B5044600F08DFA046010BD2DE900
:10066000F0470D4699469246044600F12408016879
:10067000880604D5E06921F01001216000E0012026
:10068000A84201DD471B00E00027A1697A1902EBAF
:100690000900081AA0612078C00602D42046FFF79E
:1006A000A9FE002608E0D4E901211AF806009047C7
:1006B000206A401C761C20624E45F4DB2078C00680
:1006C0000AD52046FFF796FE06E0D4E90121302046
:1006D0009047206A401C2062381EA7F10107F4DC15
:1006E00007E0D4E9012118F805009047206A401C72
:1006F0002062281EA5F10105F3DC2046FFF790FEDD
:100700002078000602D50220BDE8F0870120FBE733
:1007100070472DE9FF4F0C461E464FF0FF378BB058
:10072000D2E90001DDF860800A908A46C1F30A55DB
:1007300005B93D46002108464FF00000BAF1000F10
:1007400000F4400005DA00EB80004FF4400101EABC
:1007500050004FEA9059B9F1010F00DDB9460A98EF
:1007600050EA4A000ED044F61050A5F2FF3545433A
:100770002F14B8F1000F1ED07542291E1EDDC9F1DD
:1007800000021CE0B8F1010F4FF0000001D0302151
:1007900003E0F24305E02154401CB042FBDB30464D
:1007A0000022002121540B99C1F80880C1E90020E2
:1007B0000FB0BDE8F08FBD1B6D1CDEE74A4600DAC6
:1007C000694206A800F060FA06AB93E8070003ABA5
:1007D00083E8070050460A9900F041FB8DE80700C6
:1007E000A0F500501F3800900398002D0ADD42F25A
:1007F0001F014A460844002303A90390684600F0FD
:10080000AAFD09E0A0F500504A461F38002303A9BD
:100810000390684600F0B4FD8DE807000004000C6A
:1008200003D04FF0FF30410800E01046B8F1000F50
:1008300003D00022009215461EE0751E05D400F07C
:100840009DF9303262556D1EF9D5B3460122084339
:1008500002D000227F1C04E02078302801D1002241
:100860007F1E002A099784D01DE0112D07DA00F0C1
:1008700085F9303262556D1C50EA0102F5D108430A
:1008800002D00098C8B10EE00021681E05E0235C8C
:10089000625C63542254401E491C8142F7DBAB4624
:1008A000A81B401E0990002004F80B000B98099A21
:1008B000C0F80880C0E9002B7AE711264FF0000845
:1008C00057E72DE9F04F88460446D21D22F0070174
:1008D00091B0D1E90001CDE90A0105F035F80246F1
:1008E0000B98C00F01D02D2007E02068810701D5AB
:1008F0002B2002E0202101EAC000032A099001D048
:10090000072A05DB03464146204600F07DF90BE14E
:100910002078800601D5E06900E00620B8F1650F77
:10092000814606D0B8F1660F18D0B8F1670F70D1C4
:1009300031E00020B9F1110F009001DB112301E03B
:1009400009F101030AAA01A90CA8FFF7E2FEDDE9FB
:100950000C70002609F10105834647E001204B4653
:1009600000904FF000470AAA01A90CA8FFF7D1FE9A
:10097000DDE90DB00C995D46002610B909F10100C2
:100980000D18B9EB050003D4C0F1FF3609F10105DC
:10099000A5EB09002BE0B9F1010F01DA4FF00109D5
:1009A0000020B9F1110F0090484601DD112300E04D
:1009B00003460AAA01A90CA8FFF7ABFEDDE90C70FB
:1009C0004D4600268346207800070AD4AB4500DA5E
:1009D0005D4601A8012D04DD411911F8011C3029E3
:1009E00007D04F4502DA17F1040F04DA01208246DE
:1009F0000FE06D1EEEE7002F02DCED1B3E4403E02E
:100A0000781CA84200DD7D1CB81B00F1010A4FF0E4
:100A100000472078000703D4AA4501DB4FF0FF3AD6
:100A20000021B7F1004F0DF143088DF8431024D099
:100A300002202B23002F01DA7F422D230A21021EE0
:100A4000A0F1010000DC5FB197FBF1FC97FBF1F234
:100A500001FB1C7C17460CF1300C08F801CDEEE7C9
:100A6000A8F1010003702188090501D5452100E0A6
:100A70006521A0F1010800F8011C09980FA9A1EB5C
:100A80000807FF1D00B10120411901EBEA70A169BF
:100A90003844081A401EA0612078C00602D42046BF
:100AA000FFF7A8FC099828B1D4E901219047206AF2
:100AB000401C20622078C00622D52046FFF79AFC11
:100AC0001EE0002E04DBB34502DD01A8805D00E0DE
:100AD0003020D4E901219047206A401C2062761C16
:100AE000AAF101005FEA000A0AD100F03FF8C068ED
:100AF0000168405CD4E901219047206A401C2062D3
:100B0000281EA5F10105DCDC07E0D4E9012118F875
:100B1000010B9047206A401C2062381EA7F1010794
:100B2000F3DC2046FFF77CFC032011B041E6000017
:100B300001694A1C02610878704700B58FB0CDE9A1
:100B400001310021059105497944CDE90310114691
:100B50006846FFF7B3FC0FB000BD0000E5FFFFFFE4
:100B60000A6802F8010B0A607047000000487047ED
:100B700028030020004870470803002030B5B0F17A
:100B80000A024FEA900E71F100034EEA817EB0EB4B
:100B90000E0061EB91014FEA101E4EEA017E10EB50
:100BA0000E0041EB11114FEA102E4EEA016E10EBD0
:100BB0000E0041EB11214FEA104E4EEA014E10EBB0
:100BC0000E0041EB1141401841F100014FEAD00005
:100BD00040EA41704FEAD10110EB80054FEA8104F1
:100BE00044EA907444EB01046D1944EB0404521B75
:100BF000A3414FF0000348BF0A3200D530BD401C6E
:100C000041F1000130BD00002DE9F0411F460446CE
:100C100003260168072A01F4006004DB08B116A569
:100C200005E016A503E008B115A500E015A521F023
:100C300010002060A069C01EA0610FB1401EA0611D
:100C40002046FFF7D7FB4FB1D4E901213846904742
:100C5000206A401C2062C01C206206E0206AFAE77D
:100C6000D4E9012115F8010B9047761EF8D22046F1
:100C7000FFF7D6FBBDE8F0814E414E006E616E007D
:100C8000494E4600696E66002DE9F04781461646DA
:100C90008AB0354878440DC88DE80D003248784454
:100CA000801C03AC0DC884E80D0041F69B3008445D
:100CB000372190FBF1F290FBF1F5A5F1800501FBE6
:100CC00012041B3C02D56442012000E00020DFF842
:100CD00098A080460027FA44AAF1BE0A0EE0E00779
:100CE0000AD03246684607EB470101230AEB81012F
:100CF00000F046FB8DE8070064107F1C002CEED14D
:100D0000194F7F44AE3F19E0E80715D007EB0410F8
:100D10000DF1180A90E80E008AE80E00C068F04253
:100D200001D1981908903246012306A903A800F0C2
:100D300027FB03AB83E807006D10641C002DE3D193
:100D40004FF0010332466946B8F1000F03A802D004
:100D500000F001FB01E000F013FBC9E90001C9F854
:100D600008200AB0BDE8F087F49A000000487047F8
:100D7000080300207546FFF7F9FFAE4605006946F7
:100D8000534620F00700854618B020B5FFF770FAEB
:100D9000BDE820404FF000064FF000074FF000087C
:100DA0004FF0000B21F00701AC46ACE8C009ACE8FD
:100DB000C009ACE8C009ACE8C0098D46704710B561
:100DC0000446AFF300802046BDE81040FFF73BBA71
:100DD0004FF0013C50F8042B51F8043B9A4221D1CA
:100DE000A2EB0C03934313EACC1317D150F8042B56
:100DF00051F8043B9A4215D1A2EB0C03934313EA3A
:100E0000CC130BD150F8042B51F8043B9A4209D172
:100E1000A2EB0C03934313EACC13DBD04FF000009A
:100E2000704700BFD01A01BAB1FA81F101F0180180
:100E300022FA01F0CB40C1F12001DBB2C0B2C01AEE
:100E40002CFA01F3D11A914311EAC311E6D170478C
:100E500001491820ABBEFEE72600020070475FEA9A
:100E6000400C08BF91F0000F4FEA8C234FEAC122DB
:100E700043EA51514FEA1C5018BF00F5F0404FEAC9
:100E8000300018BF41F000415FEA6C5C00F029803F
:100E9000BCF1FF3F08BF40F080407047130C06BF15
:100EA00012044FF0100C4FF0000C130E04BF12028E
:100EB0000CF1080C130F04BF12010CF1040C930F7A
:100EC00004BF92000CF1020CD30F04BF52000CF1CE
:100ED000010C11464FF00002A0F11F00A0EB0C0026
:100EE000704711F0004F08BF704731F000413FF4E8
:100EF000D5AF0B0C06BF09044FF0100C4FF0000CDF
:100F00000B0E04BF09020CF1080C0B0F04BF090102
:100F10000CF1040C8B0F04BF89000CF1020CCB0FF9
:100F200004BF49000CF1010CCCF12003A0EB0C0034
:100F300022FA03F302FA0CF241EA030100F1010084
:100F4000704720F07F4C80EA030023F07F47ACEB32
:100F5000070303F57C5300F0004003F1FF032DE984
:100F600080494FEA154B09B44FEA144325EA0B4E6A
:100F700024EA03480FF2042606EB132749083E78BB
:100F80005FEA320203FB0667C7F5000707FB06F6B8
:100F90004FEA54374FEAD64606F1020607FB066CC5
:100FA000CCF1005C4FEA1C472CEA074C07FB06F427
:100FB0000CFB06F504EB15464FEA961634BF0020ED
:100FC0004FF000404FEAD13706FB07FC4FEA1C4CBC
:100FD0000CFB0BF7D21B03FB0CF761EB07010CFBBF
:100FE0000EF7B0EB074072EB17420CFB08F734BF6B
:100FF000A2EB0742B2EB074261EB17414FEA0C4408
:101000004FEA910706FB07FC4FEA1C4C0CFB0BF761
:10101000B0EBC74072EB573203FB0CF734BFA2EBC7
:10102000C742B2EBC74261EB57310CFB0EF7B0EB96
:10103000C70072EB57720CFB08F734BFA2EBC70274
:10104000B2EBC70261EB5771039F4FEA816141EA3E
:10105000921104EBCC044FEAD1374FEA826206FBCF
:1010600007FC42EA90124FEA80604FEA1C4C0CFBEE
:101070000BF7D21B03FB0CF761EB07010CFB0EF720
:10108000B0EB074072EB17420CFB08F734BFA2EB42
:101090000742B2EB074261EB17414FEA8C554FEA2A
:1010A000910704EB9C2406FB07FC4FEA1C4C0CFB4D
:1010B0000BF7B0EBC74072EB573203FB0CF734BFB2
:1010C000A2EBC742B2EBC74261EB57310CFB0EF704
:1010D000B0EBC70072EB57720CFB08F734BFA2EB02
:1010E000C702B2EBC70261EB577115EB4C254FEA13
:1010F000816141EA92114FEA82624FEAD13742EAB6
:10110000901206FB07FC44F100044FEA80604FEAAE
:101110001C4C0CFB0BF7D21B03FB0CF761EB07011C
:101120000CFB0EF7B0EB074072EB17420CFB08F715
:1011300034BFA2EB0742B2EB074261EB174115EB5C
:101140001C154FEA813141EA92414FEA823242EA6C
:1011500090424FEA80304FEA0C7644F1000448EAAE
:1011600003434EEA0B484FF0000EB2EB080C71EB54
:10117000030724BF624639464EEB0E0E4FF0000BBC
:101180000018524149414BEB0B0BB2EB080C71EBD1
:1011900003077BF1000B24BF624639464EEB0E0E6F
:1011A0004FF0000B0018524149414BEB0B0BB2EBD7
:1011B000080C71EB03077BF1000B24BF6246394634
:1011C0004EEB0E0E51EA020718BF46F0010616EB71
:1011D0000E7655F1000254F1000103D5BDE88901F6
:1011E000BDE80088BDE88901BDE80048B619524154
:1011F00041EB0101A3F10103704780807F7E7D7C7C
:101200007B7A7978777676757473727171706F6E98
:101210006E6D6C6C6B6A6A69686867666665646443
:10122000636362616160605F5F5E5E5D5D5C5C5BCD
:101230005B5A5A595958585757565655555554543C
:10124000535352525251515050504F4F4F4E4E4D9A
:101250004D4D4C4C4C4B4B4B4A4A4A4949494848E6
:101260004847474747464646454545444444444326
:1012700043434342424242414141002B9C4630D4C9
:1012800077002BD01CB54FEA370703B44FF010009E
:101290004FF01001BAF1000F06D0BCF1000FDCBF17
:1012A00040F0080040F008014FF000000FBCBDE81E
:1012B00010400BF1010BBBF1010F08BF5FEA1707EC
:1012C00022BF12F1010211F101014FF0004143F17F
:1012D000000300F0004043EA00007047F9D35708CC
:1012E000D0E746EA064613F1400F4FEA16461FDDE7
:1012F00013F1200FDFBF16430A46002120335B4263
:10130000BED0C3F1200746EA064602FA07F74FEAC5
:10131000164646EA0706C3F1200722FA03F201FA4D
:1013200007F721FA03F14FF0000342EA0702A7E7AB
:1013300046EA020646EA06464FEA164646EA01062D
:10134000BCBF46EA0646360C4FF000034FF00002E1
:101350004FF0000194E72DE9804C9A46934670B413
:1013600091E8380007C831EA400C48BF34EA430C22
:1013700003D5FFF7E6FDFFF780FFF0BCBDE8008C6A
:101380002DE9804C9A46934670B491E8380007C81E
:1013900010F0804F08BF13F0804F03D100F005F824
:1013A000FFF76BFFF0BCBDE8008C20F07F4780EAC0
:1013B000030023F07F4C07EB0C03A3F57C5300F0F4
:1013C0000040A3F1FE0392F0000F00F0B38095F00F
:1013D000000F00F077802DE901494FEA11404FEAF4
:1013E000144621EA004800FB06FC24EA064708FBF5
:1013F00006F607FB08F800FB07F718EB06484CEB6E
:10140000164C4FEA124B18EB07484FEA15464CEBC7
:10141000174022EA0B4E0BFB06FC25EA06470EFBA3
:1014200006F607FB0EFE0BFB07F71EEB064E4CEB1A
:10143000164C4FF000061EEB074E4CEB174B18EB0B
:101440000B0840F1000018EB0E0B58EB000840F1C0
:1014500000008F1A4FF000013CBFC943661B14BF48
:10146000B5EB040C00213CBFC943F61B4FEA1744FF
:101470004EEA8E0E27EA04454FEA1C4704FB07623A
:101480002CEA074C05FB07F70CFB05F604FB0CFCEC
:1014900016EB074642EB174216EB0C4642EB1C429A
:1014A0001BEB060658EB0202414146EA9E0601D5B7
:1014B000BDE80189B619524141EB0101A3F10103D5
:1014C000BDE801894FEA14454FEA114724EA054671
:1014D00021EA074C05FB07F406FB07F70CFB06F1B6
:1014E00005FB0CFC11EB074144EB17444FEA124794
:1014F00011EB0C4144EB1C4422EA074C05FB07F2BC
:1015000006FB07F70CFB06F605FB0CFC16EB074683
:1015100042EB174216EB0C4642EB1C456A1854F19D
:10152000000148BF7047B619524141EB0101A3F1D8
:101530000103704795F0000F37D04FEA11424FEA90
:10154000144721EA024624EA074C02FB07F106FB96
:1015500007F70CFB06F402FB0CFC14EB074441EB11
:1015600017414FEA154714EB0C4441EB1C4125EAA7
:10157000074C02FB07F506FB07F70CFB06F602FB20
:101580000CFC16EB074645EB174516EB0C4645EBF6
:101590001C42121951F1000148BF7047B61952415F
:1015A00041EB0101A3F1010370474FEA14454FEAF3
:1015B000114724EA054621EA074C05FB07F106FB23
:1015C00007F70CFB06F24FF0000605FB0CFC12EBD4
:1015D000074241EB174112EB0C4251EB1C4148BF53
:1015E0007047921841EB0101A3F10103704700001D
:1015F00055494A6822F440324A604A6843681A43AF
:101600004A600268526822F4807203685A60026875
:101610005368026943EA022203685A60026852680A
:1016200022F0407203685A600268526883681A4365
:1016300003685A600268926822F4006203689A6044
:1016400002689268C3681A4303689A603F4B826AD3
:101650009A4218D00268926822F0706203689A6019
:1016600002689268836A1A4303689A600268926803
:1016700022F0405203689A6002689268C36A1A4373
:1016800003689A600BE00268926822F07062036857
:101690009A600268926822F0405203689A60026879
:1016A000926822F0020203689A6002689368027EE0
:1016B00043EA420203689A602022125CA2B10268E7
:1016C000526842F4006203685A600268526822F469
:1016D000604203685A6002685368426A521E43EAD5
:1016E000423203685A6005E00268526822F40062E0
:1016F00003685A600268D26A22F470020368DA62F0
:101700000268D36A828B521E43EA02520368DA628D
:101710000268926822F4007203689A600268936813
:1017200090F8302043EA422203689A600268926887
:1017300022F4806203689A6002689368426943EA0F
:10174000822203689A607047002301400100000F65
:1017500010B50024D02000F0D3F90446582C02D054
:1017600000F0E4FA10BDB621E02000F0D2FA00BF8C
:1017700000F0F8F900F001000028F9D100F05EF85F
:10178000802000F0B7FA082000F078FA602000F01E
:10179000A2FA082000F090FA032000F07EFA00BFC1
:1017A000E0E7000010B52DED0C8BB0EE408A9FED08
:1017B0001C0AF0EE408A00F081F8B0EE409A89EE03
:1017C000080A10EE104A204606F03AF941EC1D0BCB
:1017D0009FED141BB0EE4D0AF0EE6D0A04F0E8F830
:1017E000B0EE40CAF0EE60CA9FED100B53EC102B28
:1017F00051EC1C0B05F062FF41EC1B0B9FED0D0B38
:1018000053EC102B05F026FE41EC1A0B05F088FB7B
:1018100008EE900AB0EE680ABDEC0C8B10BD00001B
:1018200000000000EBE2361AC05BC83F0000000079
:101830000000F03F0000000040A5E54010B51E4943
:10184000882000F086F91C49891C8A2000F078F96C
:101850001949091D8C2000F073F91749891D8E2044
:1018600000F077F914490831902000F069F9124925
:101870000A31922000F064F90F490C31942000F0F5
:101880005FF90D490E31962000F05AF90A491031DE
:10189000982000F055F9084912319A2000F050F9CB
:1018A000054914319C2000F04BF9034916319E2064
:1018B00000F046F910BD0000500000202DE9F04F67
:1018C0002DED028B85B09FED880AB0EE408A00F0C6
:1018D00051F903A9F72000F01CF9039800090390BF
:1018E0008248D0E900204FF4FA33D41A60F10005A1
:1018F000A4FB041005FB040004FB05037C48B0F9BD
:101900001000C217A1FB008A03FB00A001FB020923
:101910007748B0F90E00C117A0FB042301FB043186
:1019200000FB0510400440EAD230510411EB0808D6
:1019300040EB09096E48B0F90C0018F1000849EBBA
:10194000C009A4FB041005FB040004FB050C684857
:10195000B0F90A004FEAE073A1FB002A0CFB00A0DB
:1019600001FB03004FEA122141EA00614FEA202205
:101970005F48B0F908004FEAE073A246A0FB0ACE28
:1019800003FB04E300FB05304FEA003040EA1C5043
:101990004FEA0C33CC1842EB0005221C45F5004100
:1019A0005348C0880023A2FB00AC01FB00C002FB2F
:1019B00003014C10CD17002184EA0100694008435F
:1019C00006D19FED490A05B0BDEC028BBDE8F08F52
:1019D0000398C0F580160027F80740EA5600F10783
:1019E000B1EB080160EB090C40F635420023A1FB86
:1019F000020A0CFB02A201FB0322CDE900022246EF
:101A00002B460199FEF7BDFC06460F463848B0F953
:101A10001600C217710B41EAC74C7B13A0FB0C1ACE
:101A200002FB0CA200FB0322700B40EAC7404FEA06
:101A3000673CA1FB003A02FB00A001FB0C01580E21
:101A400040EAC1144D162A48B0F91400C117A0FB92
:101A5000062301FB063100FB0711D00C40EA413898
:101A60004FEAE149311947EB050011EB080140EB62
:101A70000900090A41EA006103121D48B0F9120089
:101A8000C217120142EA10724FEA001C11EB0C0659
:101A900043EB0207F0B20021164B0A468C4619466A
:101AA0001346A0FB012A0CFB01A100FB0311CDE9A9
:101AB0000021114A00230098FEF763FC310A41EA35
:101AC00007614FF47A72A1FB0212401802909DED5B
:101AD000020AB8EE400ADFED090A80EE201AB0EEE5
:101AE000418AB0EE480A6EE70000000020000020A6
:101AF00050000020E1F50500A08601000000C8426A
:101B000070B504462146EC2002F0CCFD054628467F
:101B100070BD70B505460C4622462946EC2002F001
:101B2000F7FD2068C0F30740218801F47F41084396
:101B300021884FF47F0202EA01410843206070BD12
:101B400070B504460D462A462146EC2002F0C8FD39
:101B500070BD70B504460D462A462146EC2002F0C1
:101B6000BFFD70BD10B5F320FFF7CAFF00F00904F8
:101B7000204610BD2DE9F0472DED028B82B09FED80
:101B80003B0AB0EE408A01A9FA20FFF7C2FF019894
:101B9000000901900198C008002335490A8812EB1A
:101BA000020C43EB03011A46B0EB0C0362EB01019C
:101BB0002F48B0F902004FEAE07CA3FB002801FBAC
:101BC000008003FB0C01D00A40EA4154CD12019879
:101BD0000209002026490988511A60EB0000A1FB88
:101BE000012300FB013301FB0030110B41EA0051DE
:101BF00002131F48B0F904004FEAE07CA1FB003853
:101C000002FB008001FB0C01980B40EA81468F1318
:101C1000A11945EB0700174AC2E90010114603C994
:101C20004FF0050C4FF00009A0FB0C8A01FB0CA142
:101C300000FB0910802118EB010140EB090C080A98
:101C400040EA0C624FEA2C21104605F027FF08EE0F
:101C5000100A9FED090AC8EE000AB0EE608AB0EEE5
:101C6000480A02B0BDEC028BBDE8F087000000001E
:101C700050000020200000200000C84270B504463B
:101C8000F520FFF73DFF20F01C0504F01C00054384
:101C90002946F52000F03DF870BD70B50446F420EB
:101CA000FFF72EFF20F0030504F00300054329464B
:101CB000F42000F02EF870BD70B50446F420FFF754
:101CC0001FFF20F01C0504F01C0005432946F420EA
:101CD00000F01FF870BD70B50446F420FFF710FF48
:101CE00020F0E00504F0E00005432946F42000F070
:101CF00010F870BD70B50446F520FFF701FF20F025
:101D0000E00504F0E00005432946F52000F001F865
:101D100070BD70B504460D462A462146EC2002F0FF
:101D20000FFD70BD00BFFEE7704700000EB54FF419
:101D3000784003F04BF94FF478400021CDE90110D1
:101D4000054840680090044804A22521036800204B
:101D500003F024FA0EBD0000100000204241524F53
:101D60004D4554455200000072B600BFFEE700002A
:101D700038B502460020009000BF92F83C000128D0
:101D800001D1022038BD012082F83C0000BF086864
:101D9000092816D91068C0680C780A3C04EB440581
:101DA0000724AC40A0431468E0600C780A3C04EBC4
:101DB00044048868A0401468E46820431468E06024
:101DC00013E0106800690C7804EB44050724AC406C
:101DD000A043146820610C7804EB44048868A04098
:101DE000146824692043146820614868072817D2C2
:101DF0001068406B0C79641E04EB84051F24AC4012
:101E0000A04314686063088880B20C79641E04EBF8
:101E10008404A0401468646B20431468606331E05C
:101E200048680D2817D21068006B0C79E41F04EB8A
:101E300084051F24AC40A04314682063088880B246
:101E40000C79E41F04EB8404A0401468246B204345
:101E50001468206316E01068C06A0C790D3C04EB2E
:101E600084051F24AC40A0431468E062088880B257
:101E70000C790D3C04EB8404A0401468E46A204310
:101E80001468E062194B1A4C1068A04206D1086829
:101E9000122803D1586840F480005860144C106830
:101EA000A0421CD10868102802D00868112816D159
:101EB000586840F400005860086810280FD10D4899
:101EC00000680D4CB0FBF4F000EB80004000009087
:101ED00002E00098401E009000980028F9D100BF51
:101EE000002082F83C0000BF00BF4BE70023014008
:101EF000002001404C00002040420F0001460868CD
:101F0000C06C704770B5044600250CB9012070BD47
:101F10001549A06A884200D000BF206C30B9204625
:101F200000F024F80020606484F83C00206C00F08D
:101F3000100088B9206C20F4885040F00200206422
:101F40002046FFF755FB00206064206C20F0020063
:101F500040F00100206400E0012500BF002084F86B
:101F60003C0000BF2846D2E70100000F10B586B044
:101F70000446142101A8FEF73DFB19492068884258
:101F80002BD100BF002000901648006840F48070FC
:101F9000144908600846006800F48070009000BF93
:101FA00000BF00BF002000900E481438006840F0C9
:101FB00001000C49143908600846006800F001006F
:101FC000009000BF00BF012001900320029000207C
:101FD000039001A9044800F0A7F806B010BD000066
:101FE00000200140443802400000024008B501468C
:101FF0000020009000BF91F83C00012801D1022090
:1020000008BD012081F83C0000BF0868806800F02E
:102010000100A0B90868806840F001000B68986072
:1020200033480068334BB0FBF3F000EB4000009006
:1020300002E00098401E009000980028F9D108683E
:10204000806800F00100002848D0086C40F201636D
:10205000984340F4807008640868406800F4806029
:1020600028B1086C20F4005040F480500864086CDB
:1020700000F48050B0F5805F04D1486C20F0060079
:10208000486401E00020486400BF002081F83C0063
:1020900000BF194A6FF022000B681860506800F00A
:1020A0001F0058B90868806800F04050F0B908680F
:1020B000806840F080400B68986017E00F4B08681C
:1020C000984213D10868806800F0405070B90868E1
:1020D000806840F080400B68986007E0086C40F032
:1020E00010000864486C40F001004864002087E755
:1020F0004C00002040420F0000230140002001401E
:1021000070B5044600F002F906462546681C10B179
:1021100004480078054400BF00F0F8F8801BA8428E
:10212000FAD370BD48000020F8B502460B460025E2
:10213000002400200021C7E0012606FA01F51E68F0
:1021400006EA0504AC4274D11E7906F00306012E9E
:1021500004D01E7906F00306022E13D190684F00BA
:102160000326BE40B0434F00DE68BE40304390605F
:10217000506801268E40B0431E79C6F300168E408B
:10218000304350601E7906F00306032E09D0D06854
:102190004F000326BE40B0434F009E68BE40304310
:1021A000D0601E7906F00306022E13D1CF0802F18B
:1021B000200656F827004E07F70E0F26BE40B04304
:1021C0004F07FF0E1E69BE403043CF0802F12006C4
:1021D00046F8270010684F000326BE40B0431E7922
:1021E00006F003064F00BE40304310605E6806F400
:1021F0004036002E67D000BF00260096344E366869
:1022000046F48046324F3E603E46366806F48046CD
:10221000009600BF00BF2F4E8F0856F827008E078C
:10222000370F0F26BE40B0432B4EB24202D10026DC
:1022300015E048E0294EB24201D101260FE0284EB8
:10224000B24201D102260AE0264EB24201D1032653
:1022500005E0254EB24201D1042600E007268F0793
:102260003F0FBE4030431B4E8F0846F827001F4EDD
:102270003068A0435E6806F4801606B120431B4E0A
:102280003060361D3068A0435E6806F4001606B163
:102290002043164E361D3060144E361F3068A04362
:1022A0005E6806F4003606B12043104E361F3060DB
:1022B000361F3068A0435E6806F4803606B12043BE
:1022C0000A4E083E3060491C1029FFF435AFF8BDB6
:1022D0004438024008380140000002400004024037
:1022E00000080240000C024000100240083C01407F
:1022F000024613690B400BB1012000E0002070473B
:102300000AB1816101E00B048361704701480068F4
:10231000704700004000002070B504460CB9012051
:1023200070BD94F83D0028B9002084F83C00204698
:1023300000F006FB242084F83D002068006820F0AF
:102340000100216808602068006840F400402168AE
:1023500008602068006820F400402168086000F0F0
:10236000ABFD05465C496068884206D85B488542FB
:1023700001D2012007E0002005E05948854201D242
:10238000012000E00020012800D1C9E75548B5FB35
:10239000F0F62068406820F03F0030432168486034
:1023A0004D496068884201D8701C07E04FF4967070
:1023B00070434FF47A71B0FBF1F0401C2168096A58
:1023C00021F03F0108432168086243496068884260
:1023D00014D8681E61684900B0FBF1F0401CC0F3DE
:1023E0000B00042801D204203DE0681E616849000A
:1023F000B0FBF1F0401CC0F30B0034E0A06838B92A
:10240000681E616801EB4101B0FBF1F0401C0AE07D
:10241000681E616801EBC10202EB0111B0FBF1F033
:10242000401C40F48040C0F30B0008B901201AE0C2
:10243000A06848B9681E616801EB4101B0FBF1F08A
:10244000401CC0F30B000CE0681E616801EBC10288
:1024500002EB0111B0FBF1F0401CC0F30B0040F4A3
:10246000804040F400402168C9694CF6FF729143F6
:1024700008432168C861D4E9070108432168096855
:1024800021F0C001084321680860D4E90310084323
:102490002168896848F2FF329143084321688860C7
:1024A000D4E9050108432168C96821F0FF01084308
:1024B0002168C8602068006840F001002168086059
:1024C00000202064202084F83D000020206384F850
:1024D0003E0000BF24E70000A086010080841E00AB
:1024E00000093D0040420F002DE9FC5F04460F4605
:1024F00090469946DDE90CAB0E9EFFF707FF0546B7
:1025000094F83D00202870D119230122B0492046BB
:10251000009501F0B3FF10B10220BDE8FC9F00BFA1
:1025200094F83C00012801D10220F6E7012084F84C
:102530003C0000BF2068006800F0010028B9206856
:10254000006840F00100216808602068006820F4FD
:10255000006021680860222084F83D00402084F853
:102560003E0000202064C4F824A0A4F82AB0608DA6
:1025700020859848E0624B46424639462046CDE9E0
:10258000006501F02DFE08B10120C6E7208D88B955
:1025900000BF002001902068406901902068806998
:1025A000019000BF00BF2068006840F400702168FF
:1025B000086040E0208D012818D12068006820F4D0
:1025C00080602168086000BF002001902068406999
:1025D000019020688069019000BF00BF20680068FA
:1025E00040F400702168086025E0EFE0208D0228AB
:1025F00016D12068006820F4806021680860206897
:10260000006840F400602168086000BF002001906D
:1026100020684069019020688069019000BF0AE04D
:1026200000BF002001902068406901902068806907
:10263000019000BF00BFBAE0208D03287ED8208D16
:10264000012815D12A463146204601F0BCFF08B1C9
:10265000012062E720680069616A0870606A401CB6
:102660006062208D401E2085608D401E60859EE04A
:10267000208D02282AD13346002257492046009552
:1026800001F0FCFE08B1012047E72068006840F433
:1026900000702168086020680069616A0870606ADB
:1026A000401C6062208D401E2085608D401E60852C
:1026B00020680069616A0870606A401C6062208D51
:1026C000401E2085608D401E608570E033460022EC
:1026D00041492046009501F0D1FE08B101201CE7D8
:1026E0002068006820F48060216808602068006924
:1026F000616A0870606A401C6062208D401E2085FF
:10270000608D401E60853346002233492046009587
:1027100001F0B4FE08B10120FFE62068006840F433
:1027200000702168086020680069616A0870606A4A
:10273000401C6062208D401E208500E010E0608D0E
:10274000401E608520680069616A0870606A401CEC
:102750006062208D401E2085608D401E608526E0D1
:102760002A463146204601F02EFF08B10120D4E66A
:1027700020680069616A0870606A401C6062208D90
:10278000401E2085608D401E608520684069C0F332
:10279000800060B120680069616A0870606A401C4E
:1027A0006062208D401E2085608D401E6085208DDA
:1027B00000287FF441AF202084F83D00002084F8F9
:1027C0003E0000BF84F83C0000BFA6E60220A4E65D
:1027D000020010000000FFFF040001002DE9FC5F73
:1027E00004460F4690469946DDE90CAB0E9EFFF776
:1027F0008DFD054694F83D0020287DD11923012246
:102800004D492046009501F039FE10B10220BDE887
:10281000FC9F00BF94F83C00012801D10220F6E79C
:10282000012084F83C0000BF2068006800F001002F
:1028300028B92068006840F001002168086020681D
:10284000006820F4006021680860212084F83D00C1
:10285000402084F83E0000202064C4F824A0A4F89E
:102860002AB0608D20853548E0624B4642463946A5
:102870002046CDE9006501F063FD08B10120C6E7FF
:1028800031E02A463146204601F0DDFE50B1206C91
:10289000042805D12068006840F4007021680860B1
:1028A0000120B4E7606A007821680861606A401C12
:1028B0006062208D401E2085608D401E60852068EE
:1028C0004069C0F3800070B1208D60B1606A00780B
:1028D00021680861606A401C6062208D401E20856E
:1028E000608D401E6085208D0028CAD12A46314661
:1028F000204601F095FD00E01CE050B1206C04285A
:1029000005D12068006840F400702168086001204B
:102910007DE72068006840F400702168086020208E
:1029200084F83D00002084F83E0000BF84F83C009D
:1029300000BF6CE702206AE7020010000000FFFF02
:1029400010B586B00446142101A8FDF753FE1B49BB
:10295000206888422FD100BF0020009018480068EE
:1029600040F00200164908600846006800F00200C6
:10297000009000BF00BFC0200190122002900020F4
:102980000390032004900420059001A90D48FFF74F
:10299000CBFB00BF0020009009481030006840F4D5
:1029A00000100749103108600846006800F4001064
:1029B000009000BF00BF06B010BD000000540040F2
:1029C0003038024000040240034800680349097897
:1029D000084401490860704740000020480000207A
:1029E00010B50D48006840F400700B4908600846B7
:1029F000006840F4806008600846006840F4807019
:102A00000860032000F0A2F80F2000F007F800F0A3
:102A10002BF8002010BD0000003C024070B50446B9
:102A20000E4800784FF47A71B1FBF0F00C49096858
:102A3000B1FBF0F5284601F04EF808B1012070BD59
:102A4000102C07D200222146501E00F041F8054804
:102A5000046001E00120F2E70020F0E748000020D8
:102A60004C0000204400002008B500BF002000906A
:102A70000E48006840F480400C4908600846006831
:102A800000F48040009000BF00BF00BF0020009015
:102A9000081F006840F08050091F08600846006861
:102AA00000F08050009000BF00BF08BD44380240D5
:102AB00001460846002809DB00F01F0301229A4066
:102AC00043099B0003F1E023C3F8002100BF7047D6
:102AD0002DE9F05F80460D461646002702F04CFFB8
:102AE000074639462A46334601F00700C0F1070A77
:102AF000BAF1040F02D94FF0040A01E0C0F1070A4D
:102B0000D14600F1040ABAF1070F02D24FF0000AD1
:102B100001E0A0F1030AD4464FF0010A0AFA09FACB
:102B2000AAF1010A0AEA020A0AFA0CFA4FF0010BAA
:102B30000BFA0CFBABF1010B0BEA030B4AEA0B049B
:102B40002146404602F020FFBDE8F09F00BF00F0A4
:102B50000702064B19684FF6FF031940044B0B435D
:102B600043EA0221014B196000BF70470CED00E001
:102B70000000FA05F8B5044600250026207800F08C
:102B8000010020B9207800F0040004282FD1002093
:102B90005F498866FFF7BAFB054606E0FFF7B6FB1C
:102BA000401B022801D90320F8BD5A480068C0F331
:102BB000C0600028F2D160688101207A41EA00708B
:102BC000544984310860012051498866FFF79EFB13
:102BD000054606E0FFF79AFB401B022801D90320B7
:102BE000E2E74C480068C0F3C0600028F2D02078CB
:102BF00000F0020002287DD100BF0020009045486F
:102C00004030006840F0805042494031086008463A
:102C1000006800F08050009000BF00BF3E48006890
:102C200040F480703C490860FFF770FB054606E001
:102C3000FFF76CFB401B022801D90320B4E736489C
:102C4000006800F480700028F2D0324870300068CC
:102C500000F440764EB3A08900F44070B04224D016
:102C60002C487030006820F4407601202B49086021
:102C700000200860274870300660006800F00100FE
:102C800098B1FFF743FB054608E0FFF73FFB401B09
:102C900041F28831884201D9032085E71D48703010
:102CA0000068C0F340000028EFD000BFA08900F406
:102CB0004070B0F5407F0CD116480830006820F411
:102CC000F810174AE16811400843124908310860BA
:102CD00007E010480830006820F4F8100D4908316A
:102CE00008600C4870300068A189C1F30B010843EB
:102CF000084900E002E07031086000BF207800F071
:102D00000800082802D1207C0649086000204BE713
:102D1000000047420038024000700040400E474229
:102D2000FFFCFF0FE011474270B504460D460CB999
:102D3000012070BD5848006800F00700A84209D281
:102D400055490D700846006800F00700A84201D000
:102D50000120EEE7207800F0020002281DD1207843
:102D600000F00400042805D14C48006840F4E0500D
:102D70004A490860207800F00800082805D1474833
:102D8000006840F46040454908604448006820F00D
:102D9000F000A168084341490860207800F0010074
:102DA000A8B36068012807D13C4808380068C0F320
:102DB0004040B8B90120BCE76068022802D06068D2
:102DC000032807D1354808380068C0F3406048B987
:102DD0000120AEE7314808380068C0F3400008B968
:102DE0000120A6E72D48006820F003006168084331
:102DF0002A490860FFF78AFA064609E0FFF786FAD3
:102E0000801B41F28831884202D9032091E707E014
:102E10002248006800F00C006168B0EB810FEDD132
:102E20001D48006800F00700A84209D91A490D7032
:102E30000846006800F00700A84201D0012078E7AA
:102E4000207800F00400042807D11448006820F41A
:102E5000E050E168084311490860207800F008005C
:102E6000082808D10D48006820F46040216940EA34
:102E7000C1000A49086000F03FF808490968C1F339
:102E80000311074A515CC8400649086006480068BB
:102E9000FFF7C4FD00204CE7003C02400838024028
:102EA00055A600084C00002044000020014800689E
:102EB000704700004C00002000B5FFF7F7FF044901
:102EC0000968C1F38221034A515CC84000BD00007B
:102ED0000838024065A6000800B5FFF7E7FF04497F
:102EE0000968C1F34231034A515CC84000BD00008B
:102EF0000838024065A600082DE9F04700240025A7
:102F00000026A1462548006800F00C0020B10428E6
:102F100005D008283AD105E0DFF8849039E0DFF8E1
:102F2000849036E01D48001F006800F03F041B48F5
:102F3000001F006800F4800078B11A481749091F83
:102F40000968C1F38811A0FB0170014622460023E5
:102F50003846FDF79FF905460EE011480F49091F55
:102F60000968C1F38811A0FB0170014622460023C5
:102F70003846FDF78FF905460848001F0068C0F382
:102F80000140401C4600B5FBF6F902E0DFF8109066
:102F900000BF00BF4846BDE8F08700000838024087
:102FA0000024F40040787D01F8B504460CB90120F6
:102FB000F8BD207800F00100002874D0F9480068BE
:102FC00000F00C0004280DD0F648006800F00C005A
:102FD000082813D1F348001F006800F48000B0F502
:102FE000800F0BD1EF4808380068C0F3404000283C
:102FF00059D06068002856D10120D9E700BF606829
:10300000B0F5803F08D1E7480838006840F48030C8
:10301000E449083908601EE06068B0F5A02F0DD1C2
:10302000E0480838006840F48020DE49083908602C
:103030000846006840F4803008600CE0D948083841
:10304000006820F48030D7490839086008460068D5
:1030500020F48020086000BF606890B1FFF756F947
:10306000054606E0FFF752F9401B642801D903200A
:103070009EE7CC4808380068C0F340400028F1D0F3
:1030800011E0FFF743F9054606E0FFF73FF9401B63
:10309000642801D903208BE7C24808380068C0F3D0
:1030A00040400028F1D1207800F0020002285FD1D2
:1030B000BC48006800F00C0058B1BA48006800F045
:1030C0000C0008281CD1B748001F006800F48000DD
:1030D000B0B9B44808380068C0F3400020B1E068D7
:1030E000012801D0012063E7AE480838006820F0CD
:1030F000F800216940EAC100AA490839086037E0B0
:10310000E06800B30120A8490860FFF7FFF8054612
:1031100006E0FFF7FBF8401B022801D9032047E730
:10312000A04808380068C0F340000028F1D09D484E
:103130000838006820F0F800216940EAC100994988
:103140000839086014E0002097490860FFF7DEF8AE
:10315000054606E0FFF7DAF8401B022801D90320F4
:1031600026E7904808380068C0F340000028F1D1F5
:10317000207800F0080008282CD16069A8B101204F
:103180008A490860FFF7C2F8054606E0FFF7BEF877
:10319000401B022801D903200AE782486C300068EE
:1031A000C0F340000028F1D014E000207F490860FF
:1031B000FFF7ACF8054606E0FFF7A8F8401B022829
:1031C00001D90320F4E677486C300068C0F3400072
:1031D0000028F1D1207800F00400042870D10027E5
:1031E00070483830006800F0805090B900BF00206F
:1031F00000906C483830006840F0805069493831A0
:1032000008600846006800F08050009000BF00BFD2
:1032100001276748006800F48070B0B9644800680E
:1032200040F4807062490860FFF770F8054606E0D8
:10323000FFF76CF8401B022801D90320B8E65C4870
:10324000006800F480700028F2D000BFA068012858
:1032500008D154486830006840F001005149683195
:1032600008601DE0A06805280DD14E486830006850
:1032700040F004004B49683108600846006840F09F
:10328000010008600CE047486830006820F0010049
:103290004449683108600846006820F0040008606E
:1032A00000BFA068A8B1FFF731F8054609E0FFF7B5
:1032B0002DF8401B41F28831884202D9032077E67D
:1032C00026E0384868300068C0F340000028EED09F
:1032D00013E0FFF71BF8054608E0FFF717F8401B5F
:1032E00041F28831884201D9032061E62D486830D7
:1032F0000068C0F340000028EFD1012F07D1294812
:103300003830006820F0805026493831086000BF0E
:10331000A069002845D02348006800F00C00082868
:103320005DD0A069022845D100201F490866FEF73C
:10333000EDFF054606E0FEF7E9FF401B022801D934
:10334000032035E6174808380068C0F340600028BD
:10335000F1D1D4E907010843616A40EA81110122F1
:10336000A06AC2EB500041EA00412C20005D41EA16
:1033700000600C49091F086001200B490866FEF730
:10338000C5FF054606E0FEF7C1FF401B022801D934
:1033900003200DE6034808380068C0F340600028A9
:1033A000F1D049E00838024000004742800E474211
:1033B00000700040002021490866FEF7A7FF05467F
:1033C00006E0FEF7A3FF401B022801D90320EFE52A
:1033D0001B480068C0F340600028F2D12CE0A069CF
:1033E000012800D1E4E51648001D0668A0690128FF
:1033F00020D006F48001E06981421BD106F03F0134
:10340000206A814216D147F6C0703040616AB0EB45
:10341000811F0FD106F440310122A06AC2EB500097
:10342000B1EB004F06D106F070612C20005DB1EBCE
:10343000006F01D00120BBE50020B9E50000474244
:103440000038024002460023106800F1500303EBED
:1034500081031868704710B50023046804F1500315
:1034600003EB81031A6010BD70B505460B46164686
:103470000024286840680E4900EA0104200CD87036
:10348000C4F30420587004F03F009870C4F3423035
:1034900018705EB9D87801F0E9FBD870587801F05F
:1034A000E5FB5870987801F0E1FB9870002070BD42
:1034B0003FFFFF0070B504460B4616460025206806
:1034C000806A586020680069C0F30E009860206828
:1034D00000680E4900EA0105C5F305401870C5F300
:1034E0000620587005F07F009870A80DD8705EB95E
:1034F000187801F0BBFB1870587801F0B7FB5870D2
:10350000987801F0B3FB9870002070BD7F7F7F003A
:1035100070B5044601250CB9012070BD607F20B94B
:1035200000202077204600F045F80220607700BF99
:10353000CA202168486253202168486200BF2046A3
:1035400001F0ADFB0546EDB92068806818490840D8
:1035500021688860216960680843616908432168BF
:1035600089680843216888602168E06808612068EC
:103570000169208941EA004021680861204601F084
:10358000B3FB05466DB92068006C20F480202168EB
:1035900008642068006CA169084321680864012060
:1035A000607700BFFF202168486200BF2846B4E76B
:1035B000BFFF8FFF10B586B00446142101A8FDF7A8
:1035C00019F80949206888420CD102200190C001F5
:1035D000049001A8FFF7CEFA08B1FEF7C5FB012061
:1035E0000249086006B010BD002800403C0E47426A
:1035F0002DE9F04105460C4617464FF0000800BF84
:10360000287F012802D10220BDE8F081012028771F
:1036100000BF022068774FB9607800F010001028D2
:1036200004D1607800F0EF000A30607087B9E0786C
:1036300001F027FB0304607801F023FB43EA002339
:10364000A07801F01EFB0343207843EA403809E0EC
:10365000E0780004617840EA0120A17808432178ED
:1036600040EA413800BFCA202968486253202968CF
:10367000486200BF284601F012FB064646B90B48D7
:1036800008EA000029684860284601F02DFB06463C
:103690000EB90120687700BFFF202968486200BF8B
:1036A00000BF0020287700BF3046ADE73FFFFF0096
:1036B0002DE9F04104460D4617464FF0000800BFC3
:1036C000207F012802D10220BDE8F081012020776F
:1036D00000BF02206077CFB92068806800F040000A
:1036E00000B102E00020E87000BF287801F0C9FABC
:1036F0000304687801F0C5FA43EA0023A87801F0D2
:10370000C0FA0343E87843EA805812E020688068F2
:1037100000F0400000B102E00020E87000BF28780F
:103720000004697840EA0120A9780843E97840EA72
:10373000815800BFCA20216848625320216848622E
:1037400000BF204601F0ABFA0646B6B9124808EAB7
:103750000000216808602068806820F480202168CB
:103760008860D5E903010843216889680843216816
:103770008860204601F0B8FA06460EB9012060774D
:1037800000BFFF202168486200BF00BF00202077F3
:1037900000BF304698E700007F7F7F0070B5044689
:1037A00000252068C06820F0A0002168C860FEF7EE
:1037B000ADFD054607E0FEF7A9FD401BB0F57A7F99
:1037C00001D9032070BD2068C06800F020000028E7
:1037D000F1D00020F6E710B504460CB9012010BD69
:1037E000606A38B96068B0F5827F00D105E00021D9
:1037F000E16102E00021216161610021A16294F890
:10380000510028B9002084F85000204600F048F804
:10381000022084F851002068006820F040002168F0
:103820000860A08800F48270218901F404410843F3
:10383000A18901F400610843217C01F002010843E1
:10384000217D01F001010843218B01F4007108433F
:10385000217F01F0380108432021095D01F080013A
:103860000843218D01F400510843216808600421B8
:10387000A06901EA104094F8241001F010010843F7
:10388000216848602068C06920F400602168C86130
:1038900000206065012084F8510000209FE70000AF
:1038A00010B586B00446142101A8FCF7A3FE1B49FD
:1038B000206888422FD100BF00200090184800687F
:1038C00040F48050164908600846006800F48050B3
:1038D000009000BF00BF00BF0020009010481438C7
:1038E000006840F001000E4914390860084600687D
:1038F00000F00100009000BF00BFA0200190022056
:10390000029000200390032004900520059001A957
:103910000448FEF709FC06B010BD0000003001406D
:1039200044380240000002402DE9F84F0446884622
:1039300016461D464FF0000A00BF94F850000128BB
:1039400002D10220BDE8F88F012084F8500000BFAA
:10395000FEF7DCFC0746B14694F85100012802D07E
:103960004FF0020AADE0B8F1000F00D016B94FF0E9
:10397000010AA6E0032084F8510000206065C4F825
:103980003080A686E686A063A087E0876064206416
:10399000A068B0F5004F0BD12068006820F040000F
:1039A000216808602068006840F480402168086051
:1039B0002068006800F04000402805D020680068BA
:1039C00040F0400021680860E068B0F5006F2FD13A
:1039D000606810B1B9F1010F09D1206B008821682E
:1039E000C860206B801C2063E08E401EE0861BE0D8
:1039F0002068806800F0020002280AD1206B00884D
:103A00002168C860206B801C2063E08E401EE08629
:103A10000AE0FEF77BFCC01BA84201D3681C00B97A
:103A200015B94FF0030A4CE0E08E0028E0D12EE0FB
:103A3000606810B1B9F1010F09D1206B00782168DD
:103A40000873206B401C2063E08E401EE0861BE064
:103A50002068806800F0020002280AD1206B0078FC
:103A600021680873206B401C2063E08E401EE086B6
:103A70000AE0FEF74BFCC01BA84201D3681C00B94A
:103A800015B94FF0030A1CE0E08E0028E0D13A4659
:103A90002946204601F058F908B120206065A06849
:103AA00050B900BF002000902068C06800902068D6
:103AB0008068009000BF00BF606D08B14FF0010A40
:103AC00000BF012084F8510000BF002084F850009E
:103AD00000BF504636E770B504462546681EB0F173
:103AE000807F01D301200FE0681E4FF0E021486184
:103AF0000F214FF0FF3001F047FF00204FF0E02191
:103B0000886107200861002070BD70477047000081
:103B100030B502460B4600BF92F83C00012801D1A7
:103B2000022030BD012082F83C0000BF022082F854
:103B30003D00106844681068816824F070041868BB
:103B4000044310684460144D1068A84213D01068F4
:103B5000B0F1804F0FD0114D1068A8420BD0104D1E
:103B60001068A84207D00F4D1068A84203D00E4D30
:103B70001068A84205D121F08001586801431068FF
:103B80008160012082F83D0000BF002082F83C00E7
:103B900000BF00BFC5E70000000001400004004076
:103BA00000080040000C00400040014010B50446F1
:103BB0000CB9012010BD94F83D0028B9002084F80C
:103BC0003C00204600F026F8022084F83D00211D2C
:103BD000206801F069FC012084F8460000BF84F8E9
:103BE0003E0001213F200155402001554120015553
:103BF00000BF00BF012084F842004320015544204B
:103C000001554520015500BF012084F83D000020EA
:103C1000D0E7000038B504462068B0F1804F18D1D5
:103C200000BF002000902348006840F001002149B7
:103C300008600846006800F00100009000BF00BF67
:103C4000002211461C20FEF743FF1C20FEF730FF28
:103C50002FE01949206888420FD100BF0020009052
:103C60001448006840F002001249086008460068E5
:103C700000F00200009000BF1BE01049206888425D
:103C800017D100BF002000900A48006840F00400EF
:103C9000084908600846006800F00400009000BF72
:103CA00000BF002211461E20FEF712FF1E20FEF765
:103CB000FFFE38BD403802400004004000080040CC
:103CC000014691F83D00012801D0012070470220F3
:103CD00081F83D00164B0868984213D00868B0F18F
:103CE000804F0FD0134B086898420BD0124B0868D6
:103CF000984207D0114B0868984203D0104B0868CF
:103D000098420CD10868806800F00702062A0CD09F
:103D10000868006840F001000B68186005E008685A
:103D2000006840F001000B6818600020CEE700003A
:103D3000000001400004004000080040000C00406A
:103D400000400140014691F83D00012801D00120CA
:103D50007047022081F83D000868C06840F001000B
:103D60000B68D860164B0868984213D00868B0F109
:103D7000804F0FD0134B086898420BD0124B086845
:103D8000984207D0114B0868984203D0104B08683E
:103D900098420CD10868806800F00702062A0CD00F
:103DA0000868006840F001000B68186005E00868CA
:103DB000006840F001000B6818600020C8E70000B0
:103DC000000001400004004000080040000C0040DA
:103DD000004001402DE9F04104460D46002700BF98
:103DE00094F83C00012802D10220BDE8F0810120B6
:103DF00084F83C0000BF022084F83D0020688668FB
:103E000026F0770626F47F462068866028685028CA
:103E100033D00CDC202850D004DC00284BD01028F4
:103E200051D149E0302849D040284CD139E06028B0
:103E30002DD0702807D0B0F5805F03D0B0F5005FBB
:103E400041D10DE041E0D5E902136A68206801F034
:103E50007DFB2068866846F077062068866034E03F
:103E6000D5E902136A68206801F070FB2068806859
:103E700040F480402168886027E0EA68696820682B
:103E800001F078FB5021206801F06BFB1DE0EA682F
:103E90006968206801F081FB6021206801F061FB06
:103EA00013E0EA686968206801F064FB402120683B
:103EB00001F057FB09E000BF00BF00BF2968206880
:103EC00001F04FFB01E0012700BF00BF012084F893
:103ED0003D0000BF002084F83C0000BF384684E766
:103EE000704710B5044620680069C0F34000D8B19F
:103EF0002068C068C0F34000B0B16FF002002168D4
:103F00000861012020772068806900F0030018B163
:103F10002046FFF7E5FF05E0204600F0ADF820461B
:103F200000F0ABF80020207720680069C0F3800023
:103F3000D8B12068C068C0F38000B0B16FF0040051
:103F400021680861022020772068806900F44070B1
:103F500018B12046FFF7C4FF05E0204600F08CF8BA
:103F6000204600F08AF80020207720680069C0F31E
:103F7000C000D8B12068C068C0F3C000B0B16FF015
:103F8000080021680861042020772068C06900F0DB
:103F9000030018B12046FFF7A3FF05E0204600F01C
:103FA0006BF8204600F069F800202077206800694F
:103FB000C0F30010D8B12068C068C0F30010B0B1E1
:103FC0006FF0100021680861082020772068C06920
:103FD00000F4407018B12046FFF782FF05E020464C
:103FE00000F04AF8204600F048F8002020772068CA
:103FF000006900F0010058B12068C06800F00100BD
:1040000030B16FF0010021680861204600F036F8F9
:1040100020680069C0F3C01058B12068C068C0F3C0
:10402000C01030B16FF08000216808612046FFF7B2
:104030006CFD20680069C0F3801058B12068C0682A
:10404000C0F3801030B16FF0400021680861204655
:1040500000F026F820680069C0F3401058B12068CD
:10406000C068C0F3401030B16FF0200021680861D3
:104070002046FFF74BFD10BD7047704710B5044652
:104080000548844201D100F059FD0448844201D121
:1040900001F0C0F810BD00008801002018020020C7
:1040A000704710B504460CB9012010BDA06900B1DD
:1040B00000E000BF94F83D0028B9002084F83C00DF
:1040C000204600F027F8242084F83D002068C068CE
:1040D00020F400502168C860204601F01DFB2068D4
:1040E000006920F49040216808612068406920F050
:1040F0002A00216848612068C06840F400502168A7
:10410000C86000202064202084F83D0084F83E0030
:104110000020CAE710B586B00446142101A8FCF7B8
:1041200069FA1B492068884230D100BF0020009006
:104130001848006840F010001649086008460068FA
:1041400000F01000009000BF00BF00BF00200090F2
:1041500010481438006840F001000E491439086016
:104160000846006800F00100009000BF00BF4FF457
:10417000C060019002200290002003900320049070
:104180000720059001A90448FDF7CEFF06B010BD39
:1041900000100140443802400000024000BFFEE72A
:1041A000014608684069C0F38020B0B16FF48060B8
:1041B0000A68506100200863202081F83D0000203B
:1041C00081F83E00086C40F00400086400BF002045
:1041D00081F83C0000BF012070470020FCE7000090
:1041E0002DE9F84304460F4615469946DDE9088651
:1041F0002068006840F480602168086020680068DA
:1042000040F4807021680860434600224FF001119D
:104210002046009600F032F960B12068006800F492
:104220008070B0F5807F02D14FF4007020640320CD
:10423000BDE8F88307F0FE00216808613346424676
:104240003E49204600F05DF908B10120F0E700BFCB
:1042500000200090206840690090206880690090EC
:1042600000BF00BF32464146204600F0ECF950B195
:10427000206C042805D12068006840F40070216893
:1042800008600120D4E7B9F1010F03D1E8B2216839
:10429000086117E0C5F307202168086132464146EE
:1042A000204600F0D0F950B1206C042805D12068D8
:1042B000006840F40070216808600120B8E7E8B2A7
:1042C0002168086132464146204600F0BCF950B1F1
:1042D000206C042805D12068006840F40070216833
:1042E00008600120A4E72068006840F4807021681D
:1042F0000860434600224FF001112046009600F06E
:10430000BDF858B12068006800F48070B0F5807F77
:1043100002D14FF400702064032089E7F8B240F026
:10432000010021680861334642460449204600F0F6
:10433000E8F808B101207BE7002079E702000100DE
:104340002DE9F8430446884615469946DDE9086795
:104350002068006840F480702168086033460022BD
:104360004FF001112046009700F088F860B12068F6
:10437000006800F48070B0F5807F02D14FF40070C7
:1043800020640320BDE8F88308F0FE00216808617E
:104390003B4632462149204600F0B3F808B10120DF
:1043A000F0E700BF0020009020684069009020687E
:1043B0008069009000BF00BF3A463146204600F0B9
:1043C00042F950B1206C042805D12068006840F4FF
:1043D0000070216808600120D4E7B9F1010F03D112
:1043E000E8B22168086117E0C5F307202168086179
:1043F0003A463146204600F026F950B1206C042898
:1044000005D12068006840F4007021680860012030
:10441000B8E7E8B2216808610020B3E702000100B4
:1044200070B504460D46164620E02046FFF7B8FE5C
:1044300008B1012070BD681CC0B1FDF767FF801B8B
:10444000A84200D895B900202063202084F83D00C0
:10445000002084F83E00206C40F02000206400BF63
:10446000002084F83C0000BF0120E3E72068406999
:10447000C0F380000028D8D00020DBE72DE9F04110
:1044800004460D4617461E46DDF818801CE0701CD9
:10449000D0B1FDF73BFFA0EB0800B04200D89EB9B9
:1044A00000202063202084F83D00002084F83E0096
:1044B000206C40F02000206400BF002084F83C0005
:1044C00000BF0120BDE8F081C5F3074001280AD1F3
:1044D00020684069A9B20840A9B2884201D10120F0
:1044E0000BE0002009E020688069A9B20840A9B269
:1044F000884201D1012000E00020B842C7D000204E
:10450000E0E72DE9F04104460D4616461F463DE022
:1045100020684069C0F38020E8B12068006840F45A
:104520000070216808606FF4806021684861002095
:104530002063202084F83D00002084F83E00206C99
:1045400040F00400206400BF002084F83C0000BF5D
:104550000120BDE8F081701CC0B1FDF7D7FEC01B83
:10456000B04200D896B900202063202084F83D0096
:10457000002084F83E00206C40F02000206400BF42
:10458000002084F83C0000BF0120E2E7C5F30740AB
:1045900001280AD120684069A9B20840A9B288421E
:1045A00001D101200BE0002009E020688069A9B258
:1045B0000840A9B2884201D1012000E00020002873
:1045C000A6D00020C5E770B504460D46164632E079
:1045D00020684069C0F30010A0B16FF0100021689E
:1045E000486100202063202084F83D00002084F8EA
:1045F0003E00206C206400BF002084F83C0000BF17
:10460000012070BDFDF782FE801BA84200D895B93D
:1046100000202063202084F83D00002084F83E0024
:10462000206C40F02000206400BF002084F83C0093
:1046300000BF0120E5E720684069C0F38010002832
:10464000C6D00020DDE770B504460D46164620E0D2
:104650002046FFF7A5FD08B1012070BD681CC0B160
:10466000FDF754FE801BA84200D895B900202063B6
:10467000202084F83D00002084F83E00206C40F0AB
:104680002000206400BF002084F83C0000BF01200F
:10469000E3E720684069C0F3C0100028D8D00020AC
:1046A000DBE700007FB504460D460026002003909E
:1046B0004FF48030012103AA0B46CDE9002102907E
:1046C0002A4621460548FDF70FFF06460EB1FDF7C5
:1046D0002DFB9DF80C0004B070BD0000BC00002054
:1046E000FEB504460D46164600274FF480300221E1
:1046F00001232A46CDE90061029021460348FDF7D7
:10470000F3FE07460FB1FDF711FBFEBDBC00002014
:10471000FEB504460D46164600274FF480300321AF
:1047200001232A46CDE90061029021460348FDF7A6
:10473000DBFE07460FB1FDF7F9FAFEBDBC00002015
:1047400077B583B004460D4600264FF48030012132
:1047500005AA0B46CDE9002102902A4621460448CD
:10476000FEF73CF806460EB1FDF7E0FA06B070BD64
:10477000BC0000201FB50020009001900290039023
:104780001548164908604FF48030486000211348EE
:1047900081600161017680F82010C1621049816258
:1047A0000021C1600121C161002180F83010012188
:1047B0004161FDF7A7FB08B1FDF7D6FA0020009094
:1047C000012001900020029069460448FDF7D0FACC
:1047D00008B1FDF7C9FA1FBD002001407400002098
:1047E0000100000F00B587B0142102A8FBF702FFFB
:1047F00000BF002001903A48006840F004003849AA
:1048000008600846006800F00400019000BF00BF87
:1048100000BF002001900846006840F0800008605A
:104820000846006800F08000019000BF00BF00BF94
:10483000002001900846006840F00100086008462A
:10484000006800F00100019000BF00BF00BF002021
:1048500001900846006840F00200086008460068C1
:1048600000F00200019000BF00BF002204211D489B
:10487000FDF746FD00224FF4C0511B48FDF740FDF7
:104880004FF400500290002003900220049002A9EF
:104890001648FDF749FC04200290012003900020F7
:1048A0000490059002A90F48FDF73EFC4FF4C0505C
:1048B00002900120039000200490059002A90A486C
:1048C000FDF732FC4FF4807002900020039002202C
:1048D000049002A90348FDF727FC07B000BD0000C3
:1048E000303802400004024000000240000802404C
:1048F00010B50B480B4908600B4848600021094877
:104900008160C1604FF4804101610021416181619A
:10491000C1610162FDF700FD08B1FDF725FA10BD88
:1049200000540040BC000020A086010010B50A48D9
:104930000A490860002048607F2108488160FF2103
:10494000C1600021016141618161FEF7E1FD08B1B3
:10495000FDF70AFA10BD00000028004010010020F9
:1049600010B50F480F4908604FF4827048604FF44B
:1049700000410C4881600021C160016141614FF438
:10498000007181610821C16100210162416281627F
:104990000A21C162FEF71FFF08B1FDF7E5F910BD5E
:1049A000003001403001002000B587B000200390A6
:1049B000049005900690019002904FF080401549B8
:1049C000086040F2E730486000211248816046F6F6
:1049D0005F51C1600021016180218161FFF7E6F82C
:1049E00008B1FDF7C1F94FF48050039003A90948BD
:1049F000FFF7F0F908B1FDF7B7F900200190029038
:104A000001A90448FFF784F808B1FDF7ADF907B034
:104A100000BD00008801002000B587B00020039091
:104A20000490059006900190029015481549086081
:104A300046F2A710486000211248816044F29F119D
:104A4000C1600021016180218161FFF7AFF808B1E9
:104A5000FDF78AF94FF48050039003A90948FFF746
:104A6000B9F908B1FDF780F900200190029001A981
:104A70000448FFF74DF808B1FDF776F907B000BD1F
:104A800000040040D001002000B587B00020039052
:104A90000490059006900190029015481549086011
:104AA00040F2E730486000211248816045F207215A
:104AB000C1600021016180218161FFF777F808B1B1
:104AC000FDF752F94FF48050039003A90948FFF70E
:104AD00081F908B1FDF748F900200190029001A981
:104AE0000448FFF715F808B1FDF73EF907B000BD1F
:104AF000000800401802002010B50B480B49086060
:104B00004FF4E1304860002108488160C1600161D4
:104B10000C21416100218161C161FFF7C2FA08B136
:104B2000FDF722F910BD00000010014060020020D6
:104B300000BFFEE700BFFEE7704700000EB5434828
:104B4000FDF754FA4148FDF7D9F941490860084694
:104B5000006840F63C7188420ED300204FF6FF718A
:104B6000CDE901103B48406800903A483AA2002144
:104B700003686F2000F012FB3548006840F63C7176
:104B8000884214D23248006840F6485188420ED319
:104B900000204FF6FF71CDE901102E4840680090CB
:104BA0002C482EA2002103686F2000F0F7FA284855
:104BB000006840F64851884214D22548006840F603
:104BC000543188420ED300204FF6FF71CDE9011019
:104BD0002048406800901F4821A2002103686F20F0
:104BE00000F0DCFA1A48006840F65431884214D2CA
:104BF0001748006840F62E1188420ED300204FF669
:104C0000FF71CDE90110134840680090114815A2CA
:104C1000002103686F2000F0C1FA0D48006840F6DB
:104C20002E1188420ED200204FF6FF71CDE90110FF
:104C300008484068009007480BA2002103686F20D5
:104C400000F0ACFA0020024908600EBD740000209C
:104C5000380000201800002024000000250000007B
:104C6000260000002700000028000000014600BFC9
:104C7000080900EB8000420001F00F001044C0B2B0
:104C800070470146002204E0501CC2B2A1F10A00A4
:104C9000C1B20A29F8D2100741EA1060704770B516
:104CA0000446002600252068C06800F04000C8B90E
:104CB0002068C06840F080002168C860FDF726FBCE
:104CC000064608E0FDF722FB801BB0F57A7F02D98B
:104CD0000420607701252068C06800F0400008B912
:104CE000012DEFD1284670BD70B50446002520681F
:104CF000C06820F080002168C8602068806800F0EB
:104D0000200030B92046FEF749FD10B1042060773D
:104D10000125284670BD00000EB54FF478400021F3
:104D2000CDE90110044840680090034803A20368DD
:104D3000162000F033FA0EBD00000020525443202C
:104D40004552524F520000007CB504460D461646AF
:104D5000164800681821B0FBF1F01549B0FBF1F0DE
:104D60004FF47A71484301906068B0F5827F0DD1AD
:104D70002B46002280212046009600F01BF898B1B7
:104D8000606D40F02000606503207CBD00BF01988D
:104D900000B908E00198401E019020688068C0F3C7
:104DA000C0100028F3D100BF0020EEE74C00002027
:104DB00040420F002DE9F84F04460D4690461E462E
:104DC000DDF82890FDF7A2FAA0EB0900371AFDF7ED
:104DD0009DFA82462C480068C0F3CB30784300909F
:104DE00045E0701C002842D0FDF790FAA0EB0A00C5
:104DF000B84200D2A7BB2068406820F0E0002168DC
:104E000048606068B0F5827F0DD1A068B0F5004FB2
:104E100003D0A068B0F5806F05D12068006820F04D
:104E2000400021680860A06AB0F5005F0DD100BFA6
:104E30002068006820F4005021680860206800683D
:104E400040F400502168086000BF012084F8510040
:104E500000BF002084F8500000BF0320BDE8F88F99
:104E6000FFE7009800B900270098401E00902068D6
:104E700080682840A84201D1012000E00020404580
:104E8000AFD10020EAE700004C000020F8B504464E
:104E90000D461646802C01DAA02D00DBF8BD00F08F
:104EA000C9F86F1CFBB2671CFAB2E9B2E0B200F0BD
:104EB000CBF830128DF80000F0B28DF8010002211D
:104EC000684600F057F900F0E5F800BFE6E72DE985
:104ED000F041044614F8017B1BE014F8018B4046B6
:104EE00000F036F914F8015B05F0800625F0800526
:104EF00025B12946204600F03DF92C4446B114F86E
:104F0000016BFF2E01D14FF4FA763046FDF7F8F829
:104F100000BF381EA7F10101CFB2DED1BDE8F0819C
:104F20002DE9F84304460D4616461F46DDF820805D
:104F3000802C01DAA02D01DBBDE8F883A019401E0A
:104F4000802802DBC4F1800086B2E819401EA02848
:104F500002DBC5F1A00087B200F06CF805EB070C8E
:104F6000ACF1010C0CF0FF0304EB060CACF1010CEE
:104F70000CF0FF02E9B2E0B200F066F84FEA282038
:104F80008DF8000008F0FF008DF8010001220421D7
:104F90000C48FDF7B5F93D460EE0344608E04FF009
:104FA000FF33022269460848FEF7BEFC601E84B249
:104FB000002CF4DC681E85B2002DEEDC00F06AF8EF
:104FC00000BFB9E7000402403001002038B50446B4
:104FD000A0238022002108460094FFF7A1FF38BDDE
:104FE00010B500F027F800F013F80648FFF76FFF40
:104FF0000548FFF76CFF0548FFF769FF00F04AF826
:1050000010BD0000E2A500081DA600082AA60008A1
:1050100010B500224FF400610548FDF771F9052035
:10502000FDF76EF80122D1020148FDF769F910BDC4
:105030000000024010B500224FF480510148FDF7F6
:105040005FF910BD00000240F8B507460C46154652
:105050001E462A2000F07CF800200090F8B28DF85F
:105060000100E8B28DF803000421684600F082F8E0
:105070002B2000F06DF8E0B28DF80100F0B28DF851
:1050800003000421684600F075F82C2000F060F859
:10509000F8BD000010B5012211030248FDF730F9F8
:1050A00010BD0000000002400FB42DE9F84F044687
:1050B0000D469046DDE90F9A9DF835C0AC44ACF141
:1050C000010C0CF0FF039DF834C0A444ACF1010CBA
:1050D0000CF0FF02E9B2E0B2FFF7B6FF00262FE0C6
:1050E000A8F120009DF8351000FB01600E9931F801
:1050F00010B000271FE00BFA07F000F4004060B189
:105100004FEA29208DF8000009F0FF008DF801001A
:105110000221684600F02EF80CE04FEA2A208DF8B4
:1051200000000AF0FF008DF801000221684600F03F
:1051300021F800BF7F1C9DF83400B842DBD8761CF4
:105140009DF83500B042CBD8BDE8F80F5DF814FBF0
:1051500001B5002204210548FDF7D2F84FF0FF33D6
:10516000012269460248FEF7DFFB08BD0004024049
:105170003001002070B504460D4601220421054887
:10518000FDF7BEF8AAB24FF0FF3321460248FEF702
:10519000CBFB70BD00040240300100200FB42DE9AC
:1051A000FE4305460E461446DDE90F78FFF742FF41
:1051B00024E09DF83400284480280FDB00259DF86A
:1051C0003500304486B29DF835003044A02800DB1D
:1051D00017E02078202801D1641C0FE0CDE9017888
:1051E0000E9800902278314628460D9BFFF75CFF11
:1051F0009DF83400284485B2641C00BF2078002844
:10520000D7D100BFFFF746FFBDE8FE035DF814FBF2
:105210007047000010B52DED028B84B0FCF7AAFC9E
:10522000504880ED000A006802F00AFC41EC180BBF
:1052300053EC182B4CA14E48FBF7C8F800204FF652
:10524000FF71CDE901104B48406800904948484A39
:10525000372103680020FFF7A1FFFCF72FFB46482A
:1052600080ED000A90ED000ADFED440A80EE201A7E
:1052700011EE104A204602F0E3FB41EC180B53EC10
:10528000182B3FA13A48FBF7A1F800204FF6FF7119
:10529000CDE901103748406800903648344A5D2116
:1052A00003680020FFF77AFF334890ED000ADFED36
:1052B000370A20EE200A10EE101A084602F0C0FB52
:1052C00041EC180B53EC182B31A12948FBF77EF861
:1052D00000204FF6FF71CDE901102648406800908C
:1052E0002448234A6F2103680020FFF757FF9FEDF2
:1052F0002B0AFCF757FADFED2A0A80EE201ABCEEE3
:10530000C10A284880ED000A27A102681848FBF767
:105310005DF824480068B0F57A7F0FD200204FF680
:10532000FF71CDE901101348406800901148104A00
:10533000372103684420FFF731FF0EE000204FF6CD
:10534000FF71CDE901101948406800901748084ADC
:10535000372103684420FFF721FF04B0BDEC028B26
:1053600010BD000028000020252E31662A430000D1
:10537000A4020020080000202C00002000007A4435
:10538000252E32662068506100000000CA9F443A12
:10539000252E3266206D6D48670000002060774939
:1053A0000000C842340000202564000000000020F6
:1053B00010B5FDF709FB10BD00B593B0302107A86B
:1053C000FBF718F9142102A8FBF714F900BF00201D
:1053D00001902648006840F0805024490860084643
:1053E000006800F08050019000BF00BF00BF0020A7
:1053F00001901F48006820F4404040F400401C49E0
:1054000008600846006800F44040019000BF00BFFB
:10541000052007904FF48030089001200990022069
:105420000D9041050E9119210F91A8211091022193
:1054300011910421129107A8FDF7B6FD08B1FCF700
:1054400093FC0F20029002200390002004904FF460
:105450008050059000200690022102A8FDF764FC10
:1054600008B1FCF781FC13B000BD000040380240D9
:10547000007000400348006840F470000149086073
:105480007047000088ED00E010B50248FEF729FDE6
:1054900010BD00008801002010B50248FEF721FD74
:1054A00010BD00001802002010B50268204B984281
:1054B0000BD0B0F1804F08D01E4B984205D01E4B48
:1054C000984202D01D4B984203D122F070024B68E3
:1054D0001A43174B984214D0B0F1804F11D0154B9E
:1054E00098420ED0144B98420BD0144B984208D0DF
:1054F000134B984205D0134B984202D0124B98425E
:1055000003D122F44072CB681A4322F080034C6925
:1055100043EA040202608B68C3620B688362044B37
:10552000984201D10B6903630123436110BD000060
:10553000000001400004004000080040000C004052
:1055400000400140004401400048014030B50C4695
:10555000816821F47F4142EA032525432943816084
:1055600030BD0A46816821F0700142F007031943FB
:105570008160704730B50B461446026A056A25F013
:1055800001050562816921F0F00141EA041122F070
:105590000A021A438161026230BD30B50B461446DF
:1055A000056A25F0100505628169026A21F47041DF
:1055B00041EA043122F0A00242EA03128161026250
:1055C00030BD00003EB5002406E0A0B24FF6FF72E9
:1055D0002421FFF75BFC641C802CF6DB002406E032
:1055E000A0B24FF6FF724921FFF750FC641C802CDB
:1055F000F6DB242406E0A1B24FF6FF724320FFF74A
:1056000045FC641C492CF6DB002406E0A0B24FF6F2
:10561000FF728221FFF73AFC641C802CF6DB00202D
:105620004FF6FF71CDE901102A48406800902948E3
:1056300029A2252103680020FFF7B0FD00204FF6C6
:10564000FF71CDE90110234840680090214824A251
:10565000252103684420FFF7A1FD00204FF6FF71CC
:10566000CDE901101B48406800901A481EA237215E
:1056700003687020FFF792FD00204FF6FF71CDE91F
:105680000110144840680090124818A24A2103688B
:105690000020FFF783FD00204FF6FF71CDE90110D8
:1056A0000C48406800900B4813A283210368142023
:1056B000FFF774FD002046F64D31CDE9011010488A
:1056C000406800900E480FA2962103680420FFF75F
:1056D00065FD3EBD0800002054454D503A000000D5
:1056E000414C543A000000006D0000005072657398
:1056F0007572653A0000000048554D3A20000000E0
:1057000000000020476974687562202D2041727482
:1057100075725374610000002DE9F84F044620684B
:10572000006920F44050E16808432168086121695C
:10573000A068084361690843E16908430090206854
:10574000C06849F20C618843009908432168C86029
:105750002068406920F44070A169084321684861CD
:1057600076492068884203D075492068884203D171
:10577000FDF7B2FB814602E0FDF79EFB8146E06942
:10578000B0F5004F6CD102206168A0FB01500346C8
:105790001920A9FB007001462A463846FAF77AFD1F
:1057A0006421B0FBF1F04FEA001A02206168A0FB0F
:1057B00001510B461920A9FB00712A463846FAF719
:1057C00069FD834602206168A0FB01500346192051
:1057D000A9FB00712A463846FAF75CFD6421B0FB4C
:1057E000F1F000EBC00101EB0010ABEB80003221C7
:1057F00001EBC0006421B0FBF1F000F0F8000AEB0F
:10580000400A02206168A0FB015003461920A9FB51
:10581000007001462A463846FAF73CFD83460220CE
:105820006168A0FB015003461920A9FB00712A46BC
:105830003846FAF72FFD6421B0FBF1F000EBC00110
:1058400001EB0010ABEB8000322101EBC0006421C2
:10585000B0FBF1F000F007005044216888606AE076
:1058600004206168A0FB015003461920A9FB0070C9
:1058700001462A463846FAF70DFD82460420616843
:10588000A0FB015003461920A9FB007001462A46DF
:105890003846FAF7FFFC6421B0FBF1F000EBC001E1
:1058A00001EB0010AAEB8000322101EB0010642113
:1058B000B0FBF1F000F0F00A04206168A0FB017079
:1058C00003461920A9FB00513A462846FAF7E2FCA4
:1058D0006421B0FBF1F00AEB001A04206168A0FB20
:1058E00001510B461920A9FB00712A463846FAF7E8
:1058F000D1FC834604206168A0FB015003461920B7
:10590000A9FB007001462A463846FAF7C3FC642119
:10591000B0FBF1F000EBC00101EB0010ABEB80003D
:10592000322101EB00106421B0FBF1F000F00F0018
:10593000504421688860BDE8F88F000000100140E5
:105940000014014000BFFEE703B401984100009835
:1059500050EAC12018BF04204A0D18BF40F00100D2
:1059600040F2FF72B2EB515F08BF40F00200012825
:1059700008BF052002B0704702480068C0F302204B
:10598000704700000CED00E010B5002804DB0A07AA
:10599000130E054A135406E00A07140E034A00F0DA
:1059A0000F031B1FD45410BD00E400E018ED00E00D
:1059B0002DE9F04D2DED040B2DED0E8B96B0DDE9AC
:1059C0002550279CDDF890A025F0004624F00048E3
:1059D000BAF1000F14BF0121002101EB4502FC497F
:1059E00053184A1093422AD3002814BF01230023DE
:1059F00003EB44030B44F7498B4220D358EA0001E0
:105A00009FEDF59B76D0DFF8D8B35D4503D1BAF1B1
:105A1000000F05D188E0BAF1000F08BF002100D0C7
:105A2000012101EB450111F5001F08D8002814BF22
:105A30000121002101EB440111F5001F0BD99DED5F
:105A4000261B9DED240B16B0BDEC0E8B04B0BDE8FB
:105A5000F04D00F069BE0027002DBCBFE14988452C
:105A600021DAE1498845A8BF02271CDAC3451ADCC0
:105A7000DE4901EB2851142908DDC1F1340220FA76
:105A800002F101FA02F282420DD108E058B9C1F1E7
:105A9000140228FA02F101FA02F2424503D101F0A0
:105AA0000101C1F1020756EA0A0124D1002C22DAD1
:105AB000002D18BF022F01D0012F0AD00220FAF7C3
:105AC000C8FD16B0BDEC0E8B04B0BDE8F04D00F083
:105AD00013BE0220FAF7BDFD00F00EFE51EC100BD4
